:100000000C9485080C9435240C940E240C94AD08A3
:100010000C94AD080C94AD080C94AD080C94AD088C
:100020000C94AD080C94AD080C94AD080C945C24B1
:100030000C94AD080C94AD080C94AD080C94AD086C
:100040000C94C4230C94AD080C9492230C946C2350
:100050000C94AD080C94AD080C94AD080C94AD084C
:100060000C94AD080C94AD0805A84CCDB2D44EB993
:100070003836A9020C50B9918688083CA6AAAA2A4B
:10008000BE000000803F101030020020C0C0F0F021
:100090003C3CFFFFFFFF3C3CF0F0C0C0C0C0F0F0B4
:1000A0003C3CFFFFFFFF3C3CF0F0C0C0C3C3333318
:1000B000CFCF33333333CFCF3333C3C33333CFCF48
:1000C00003030F0F0F0F0303CFCF3333181030028A
:1000D0000030F0F0FCFCFCFC3C3C3F3FFFFFFFFF2E
:1000E0003F3F3C3CFCFCFCFCF0F0F0F0FCFCFCFC7A
:1000F0003C3C3F3FFFFFFFFF3F3F3C3CFCFCFCFC28
:10010000F0F0C3C3C3C333333F3F0F0F3333333335
:100110000F0F3F3F3333C3C3C3C303033333FFFF67
:10012000CFCF0F0F333333330F0FCFCFFFFF333327
:10013000030316103002002CFCFCC0C0F3F33C3C5F
:10014000F0F0F0F0F0F03C3CF3F3C0C0FCFC000039
:10015000C0C0F3F33C3CF0F0F0F0F0F03C3CF3F3C3
:10016000C0C000000303CFCF3F3F0F0F0F0F0F0F93
:100170000F0F0F0F3F3FCFCF03033F3F03033F3F1F
:10018000CFCFCFCF0F0FCFCFCFCF3F3F03033F3FD7
:100190000C30300B012000C0F87C3E3EFCF8C00063
:1001A0000000000080E078FEFE000000000000F08B
:1001B0007C3C3E3EFEFCE0000000007C3E3E3EFEFD
:1001C000F8C0000000000000000000F8FEFE000083
:1001D000000000FEFE3E3E3E3E3E000000000000ED
:1001E00080F0FC3E3E3EFC000000003E3E3E3E3EB7
:1001F0003E3EFEFE00000000C0F8FE3E7EFCE00039
:1002000000000000E0FC7E3EFEF8C00000000000A0
:100210000000C0E0C00000000000F0FF0F00000080
:10022000F9FFFFF000000000070300FFFF000000DF
:10023000000000010000000000FFFF0000000000BF
:1002400000000000FFFF00000000000000E0FF1FB2
:10025000FFFF0000000000FFFF00000000000000A2
:10026000000000E0FF3F0000000000000000000070
:1002700000000000C0FC7F0300000000FFFF000042
:1002800000FFFF00000000FEFF03000000FFFFF082
:100290000000000000003F7F3F0000000000FFFF63
:1002A0000000E0FF1F00FFFF00000000000000FF53
:1002B000FF00000000000000000000E0FE1F010041
:1002C00000000000F8F8FCFFC7000000000000C0BC
:1002D000FE3F0300FFFF00000000003F3F3E7EFCAA
:1002E000F8E00000000000FFFF80F07C7CF8F000E8
:1002F00000000000000080F8FF0700000000000080
:10030000019FFFF8FE1F0100000000FFFFC000007A
:1003100080FFFFFF00000000000000000000000060
:100320000000FFFFC0FC7F030000FFFF0000000093
:10033000000000FFFF0000000000000000E0FE0FD2
:100340000100000000000000000000010FFFF800A5
:100350000000F8FFE7E0E0E0FFFFE0E0E000000081
:100360000000000007FFFE00000000FFFFFF030089
:100370000001FFFF0000000000F0FF0F0000000080
:10038000000000C0FC3F03031FFFFCC00000000092
:100390000F1F3E3E0F01FFFF000000000000008025
:1003A00000000000000007FFFF07000000FCFF073F
:1003B00000000000000000FFFF000000000000E05F
:1003C000FE0F000000000000000000000000000020
:1003D000C0FF7F000000030303030303FFFF0303C9
:1003E0000300000000000000C0FF7F000000000FBD
:1003F000FFFF80000080FF7F00000000FEFF030081
:1004000000000000000000FFFF8000000080FFFFF0
:10041000000000000000000080FCFF07000000005A
:100420000000FFFFFF000000000000031F3F7C7C76
:100430003F1F0300000000007C7C7C7F7F7C7C7C75
:100440000000007F7F7C7C7C7C7C7C000000003F87
:100450007E7C7C7E1F070000000000000000000082
:100460007F7F00000000001F3E7C7C3E1F070000D5
:1004700000000000031F7F7C7C3F0700000000009D
:100480007F7F000000000000000000011F3F7E7C15
:100490007E3F1F01000000003E7C7C7E3F0F01007C
:1004A00000000000000000010000000000000A1031
:1004B0002E0C0114000000000000000000000000ED
:1004C000000000000000000078FC020303030302A8
:1004D000FC780000000000000000FF7E00000283A6
:1004E00083838302FC780000028383838302FC7889
:1004F0007EFF008080808000FF7E78FC0283838303
:100500008302000078FC02838383830200000002E0
:10051000030303030302FC7878FC028383838302D2
:10052000FC7878FC028383838302FC7800000060FF
:10053000F0F060000000000000000000000000007B
:100540001E3F40C0C0C0C0403F1E00000000000071
:100550000000FF7E1C3E41C1C1C1C141000000003E
:1005600041C1C1C1C1413E1C0000010101010101A5
:10057000FF7E000041C1C1C1C1413E1C1C3E41C1C2
:10058000C1C1C1413E1C0000000000000000FF7E10
:100590001C3E41C1C1C1C1413E1C000041C1C1C19D
:1005A000C1413E1C0810206002380000000000001D
:1005B0000000000000FE0000000000000E000E0021
:1005C000000000D0BE90D0BE9000001C62FFC28030
:1005D00000000C12924CB0880600807C62B21CC0F5
:1005E000000000000E0E0000000000E018040202EF
:1005F00000000002020418E000000024187E182405
:100600000000808080F080808000000000000000FA
:1006100000000080808080000000000000000000DA
:1006200000000000806018060000F804C2320CF8D8
:100630000000000404FE0000000000028242221CB0
:1006400000000002222222DC0000C0A09884FE806C
:100650008000001E121222C20000F844222222C092
:100660000000000202C2320A0600008C5222528CA4
:1006700000003C42424226F80000000030300000FA
:10068000000000003030000000008080404020204A
:10069000100040404040404000001020204040807A
:1006A000800000028242221C0000000000000000C6
:1006B0000000000000050000000000000000000035
:1006C000000000070000070000000004040F0403FE
:1006D00000000402010304040300030404040503EE
:1006E00004000000000000000000000306081010D5
:1006F00000000010100806030000000000000000C9
:10070000000000000007000000000000160E0000BE
:1007100000000000000000000000000006060000CD
:1007200000000402010000000000010304040201B3
:10073000000000040407040400000007040404048B
:10074000000000040404040300000000000007008F
:100750000000000404040403000001020404040374
:100760000000000007000000000000030404040370
:10077000000000040404020100000000060600005E
:1007800000000000160E000000000000010102023F
:100790000400010101010101000004020201010045
:1007A00000000000050000000000F804728AFA84CE
:1007B000780000C0380638C0000000FE222222DC8B
:1007C0000000F804020202020000FE02020204F825
:1007D000000000FE22222222000000FE222222220D
:1007E0000000F804020222E20000FE20202020FE89
:1007F0000000000202FE020200000000000202FEF1
:100800000000FE40B0080402000000FE00000000EE
:100810000000FE0C7080700CFE00FE0C30C000FE6C
:100820000000F804020204F80000FE424242221CCA
:100830000000F804020204F8000000FE4242A21C7C
:100840000000001C224242800000020202FE02025E
:100850000200FE00000000FE00000638C000C038A4
:1008600006003EC0F00EF0C03E00000698609806FC
:100870000000000618E0180600000202C2320A0654
:1008800000000000FE020202020000061860800064
:10089000000002020202FE00000040300C0C30405A
:1008A0000000000000000000000001020404040039
:1008B0000000060101010101060000070404040311
:1008C00000000102040404040000070404040201FF
:1008D00000000007040404040000000700000000FA
:1008E00000000102040404070000070000000007E4
:1008F00000000004040704040000000404040403CE
:1009000000000700000102040000000704040404C2
:1009100000000700000100000700070000000307B7
:1009200000000102040402010000070000000000B2
:1009300000000102040C1211100000070000010663
:10094000000000040404040300000000000700008D
:100950000000030404040403000000000106010079
:10096000000000070000000700000006010001066B
:100970000000000000070000000006050404040455
:10098000000000001F101010100000000000010205
:100990000400101010101F000000000000000000F4
:1009A0000000080808080808000000000204000011
:1009B000000000E0101010F0000000FE201010E019
:1009C000000000E010101010000000E0101010FEF9
:1009D000000000E0909090E000000020FC22222225
:1009E000020000E0101010F0000000FE201010E0E7
:1009F00000001010F2000000000000101010F200C3
:100A0000000000FE804020100000000202FE0000F6
:100A10000000F02010F02010F00000F0201010E096
:100A2000000000E0101010E0000000F0201010E0C6
:100A3000000000E0101010F0000000F02010107016
:100A400000000060909090200000002020FC2020FA
:100A5000200000F0000000F00000007080008070B6
:100A60000000F000C030C000F0000030C0C0300016
:100A700000000030C0008070000000101090503066
:100A800000000080807E02020000000000FE0000E6
:100A900000000002027E80800000008080000000D4
:100AA00080000000000000000000000000000000C6
:100AB000000000030404020700000007040404030C
:100AC00000000003040404040000000304040207FF
:100AD00000000003040404040000000007000000FC
:100AE000000000332424221F00000007000000073C
:100AF00000000000070404000000202020201F0048
:100B000000000007000102040000000000070404C8
:100B100000000700000700000700000700000007B2
:100B200000000003040404030000003F0404040365
:100B3000000000030404023F000000070000000062
:100B40000000000204040403000000000003040489
:100B50000400000304040207000000000304030073
:100B60000000010601000106010000060101060067
:100B700000002020310E03000000000605040404DC
:100B800000000000001F101000000000000700001F
:100B900000000010101F0000000001000001010112
:100BA00000000000000000000000050800FF0C4BE2
:100BB00000000000003E5B4F5B3E3E6B4F6B3E1CF7
:100BC0003E7C3E1C183C7E3C181C577D571C1C5E0E
:100BD0007F5E1C00183C1800FFE7C3E7FF001824E5
:100BE0001800FFE7DBE7FF30483A060E262979298F
:100BF00026407F050507407F05253F5A3CE73C5AC4
:100C00007F3E1C1C08081C1C3E7F14227F22145FA0
:100C10005F005F5F06097F017F006689956A6060FB
:100C200060606094A2FFA29408047E040810207EF5
:100C3000201008082A1C08081C2A08081E1010107A
:100C4000100C1E0C1E0C30383E3830060E3E0E06C0
:100C5000000000000000005F000000070007001413
:100C60007F147F14242A7F2A1223130864623649D2
:100C70005620500008070300001C224100004122BA
:100C80001C002A1C7F1C2A08083E080800807030BF
:100C9000000808080808000060600020100804022E
:100CA0003E5149453E00427F400072494949462134
:100CB00041494D331814127F1027454545393C4AA8
:100CC00049493141211109073649494936464949BF
:100CD000291E000014000000403400000008142207
:100CE0004114141414140041221408020159090675
:100CF0003E415D594E7C1211127C7F494949363E76
:100D0000414141227F4141413E7F494949417F095B
:100D10000909013E414151737F0808087F00417F66
:100D200041002040413F017F081422417F40404064
:100D3000407F021C027F7F0408107F3E4141413EFC
:100D40007F090909063E4151215E7F09192946267E
:100D50004949493203017F01033F4040403F1F2082
:100D600040201F3F4038403F631408146303047859
:100D700004036159494D43007F4141410204081079
:100D800020004141417F04020102044040404040B4
:100D9000000307080020545478407F284444383822
:100DA00044444428384444287F3854545418000894
:100DB0007E090218A4A49C787F0804047800447D6E
:100DC00040002040403D007F1028440000417F400B
:100DD000007C047804787C0804047838444444385F
:100DE000FC1824241818242418FC7C08040408483F
:100DF0005454542404043F44243C4040207C1C2090
:100E000040201C3C4030403C44281028444C9090EA
:100E1000907C4464544C4400083641000000770044
:100E200000004136080002010204023C2623263C51
:100E30001EA1A161123A4040207A385454555921DC
:100E400055557941215454784121555478402054C6
:100E50005579400C1E527212395555555939545412
:100E6000545939555454580000457C410002457D81
:100E7000420001457C40F0292429F0F0282528F083
:100E80007C545545002054547C547C0A097F4932D7
:100E9000494949323248484832324A4848303A4152
:100EA00041217A3A42402078009DA0A07D394444F7
:100EB00044393D4040403D3C24FF2424487E494382
:100EC000662B2FFC2F2BFF0929F620C0887E0903F3
:100ED00020545479410000447D413048484A32381A
:100EE0004040227A007A0A0A727D0D19317D262946
:100EF000292F28262929292630484D40203808083E
:100F0000080808080808382F10C8ACBA2F10283471
:100F1000FA00007B000008142A142222142A140864
:100F2000AA005500AAAA55AA55AA000000FF001061
:100F30001010FF00141414FF001010FF00FF101019
:100F4000F010F0141414FC001414F700FF0000FF5C
:100F500000FF1414F404FC141417101F10101F10B9
:100F60001F1414141F00101010F0000000001F10B8
:100F70001010101F10101010F010000000FF1010C3
:100F800010101010101010FF10000000FF140000CF
:100F9000FF00FF00001F10170000FC04F4141417DA
:100FA00010171414F404F40000FF00F714141414C0
:100FB000141414F700F7141414171410101F101F32
:100FC000141414F4141010F010F000001F101F007F
:100FD00000001F14000000FC140000F010F01010BE
:100FE000FF10FF141414FF141010101F0000000055
:100FF000F010FFFFFFFFFFF0F0F0F0F0FFFFFF0049
:1010000000000000FFFF0F0F0F0F0F38444438445B
:101010007C2A2A3E147E02020606027E027E0263BB
:10102000554941633844443C04407E201E2006025A
:101030007E020299A5E7A5991C2A492A1C4C720137
:10104000724C304A4D4D303048784830BC625A4678
:101050003D3E494949007E0101017E2A2A2A2A2A69
:1010600044445F444440514A444040444A51400053
:1010700000FF0103E080FF000008086B6B083612D8
:10108000362436060F090F0600001818000000105D
:1010900010003040FF0101001F01011E00191D1743
:1010A00012003C3C3C3C000000000000000000241A
:1010B0000027002A0000000000250028002B000067
:1010C0000000080002010000030407000000000007
:1010D00000000001020408102040800102040810F2
:1010E000200102040810200000000023002600292F
:1010F00000040404040404040402020202020203C1
:101100000303030303002A25872E11241FBECFEFFC
:10111000D8E0DEBFCDBF15E0A0E0B1E0E6E8F8E63C
:1011200002C005900D92AC31B107D9F726E0ACE1D1
:10113000B5E001C01D92AA36B207E1F718E0C4E895
:10114000D8E004C02197FE010E942432C338D107A1
:10115000C9F70E9413260C9436340C940000A3E1C6
:10116000B6E018968C931897E82FF0E0EE0FFF1F6B
:10117000EE58FC4F80819181FC01249116962C93AE
:1011800016973196E4911796EC931797FC013296D7
:10119000E4911996EC931997FC013396E4911A9611
:1011A000EC931A97FC01349624913196E491F0E087
:1011B00084E6289FE00DF11D11241E96FC93EE930A
:1011C0001D9781E00895E0915706EC3088F5409135
:1011D000580628E830E0241B310947FD3395220FDB
:1011E000331F220F331F8217930784F04091590653
:1011F00028E532E0241B310947FD3395220F331FC8
:10120000220F331F821793070CF49C0122503109DF
:10121000220F331F4FB7F8948E2F90E0FC01EE0F92
:10122000FF1FE80FF91FEA5DF94F328321834FBF9B
:101230000895E82F8034E8F46033D8F42130D1F4F5
:101240004130B9F4862F86958695869520E4829F55
:10125000C0011124E80FF92FF11DED56FE4F677004
:1012600021E030E001C0220F6A95EAF780818227F1
:1012700080830895862F86958695869520E4829FA3
:10128000C0011124E80FF92FF11DED56FE4F20810A
:10129000677081E090E001C0880F6A95EAF74130FD
:1012A00011F4822BE5CF80958223E2CF7F928F923B
:1012B0009F92AF92BF92CF92DF92EF92FF920F93E5
:1012C0001F93CF93DF93C82FD62F142F702E422F4A
:1012D000461B550B6A0157FF03C0D194C194D10836
:1012E000812F8C1B990B5C0197FF03C0B194A194D3
:1012F000B108AC14BD0434F4812F122F282F8C2F89
:10130000CD2FD82F1C1730F48D2FD22F282F8C2FB4
:10131000C12F182F812E8C1A422F4D1B550BCA013D
:1013200057FF03C0919581959109F82E982C9694BA
:101330000FEFD21708F401E0C11790F42E2D472DBE
:101340006C2F8D2FAC14BD0414F06D2F8C2F0E94C8
:1013500019099F1897FE02C0D00F980CCF5FECCFF1
:10136000DF91CF911F910F91FF90EF90DF90CF9081
:10137000BF90AF909F908F907F9008959C01803197
:101380009742D4F486E0213F78ED3707BCF081E046
:1013900037FF04C031952195310982E04AE050E0E1
:1013A0009AE02417350754F08F5FBA01969FA00189
:1013B000979F500D1124F5CF85E008950895AF92C1
:1013C000BF92CF92DF92EF92FF920F931F93CF9332
:1013D000DF936C017B018B01040F151FEB015E0194
:1013E000AE18BF08C017D10759F06991D601ED9129
:1013F000FC910190F081E02DC6010995892B79F7C8
:10140000C501DF91CF911F910F91FF90EF90DF9079
:10141000CF90BF90AF900895FC01538D448D252F40
:1014200030E0842F90E0821B930B541710F0CF967E
:10143000089501970895FC01918D828D981761F0B0
:10144000A28DAE0FBF2FB11D5D968C91928D9F5FC7
:101450009F73928F90E008958FEF9FEF0895FC01A6
:10146000918D828D981731F0828DE80FF11D858D59
:1014700090E008958FEF9FEF0895FC01918D228DEC
:10148000892F90E0805C9F4F821B91098F73992771
:10149000089586E795E00E943D0A21E0892B09F432
:1014A00020E0822F089580E090E0892B29F00E94AF
:1014B000490A81110C9400000895FC01A48DA80F25
:1014C000B92FB11DA35ABF4F2C91848D90E0019686
:1014D0008F739927848FA689B7892C93A089B189A6
:1014E0008C91837080648C93938D848D981306C047
:1014F0000288F389E02D80818F7D80830895EF92AB
:10150000FF920F931F93CF93DF93EC0181E0888FBD
:101510009B8D8C8D98131AC0E889F989808185FF8D
:1015200015C09FB7F894EE89FF896083E889F9892F
:1015300080818370806480839FBF81E090E0DF9131
:10154000CF911F910F91FF90EF900895F62E0B8D84
:1015500010E00F5F1F4F0F731127E02E8C8D8E113F
:101560000CC00FB607FCFACFE889F989808185FFA6
:10157000F5CFCE010E945D0AF1CFEB8DEC0FFD2F70
:10158000F11DE35AFF4FF0829FB7F8940B8FEA8961
:10159000FB8980818062CFCFCF93DF93EC01888D70
:1015A0008823B9F0AA89BB89E889F9898C9185FDDE
:1015B00003C0808186FD0DC00FB607FCF7CF8C916C
:1015C00085FFF2CF808185FFEDCFCE010E945D0ABD
:1015D000E9CFDF91CF910895833081F028F48130F5
:1015E00099F08230A9F008958730A9F08830C9F0C9
:1015F0008430B1F4809180008F7D03C080918000A1
:101600008F7780938000089584B58F7784BD089587
:1016100084B58F7DFBCF8091B0008F778093B00031
:1016200008958091B0008F7DF9CFCF93DF93282F5D
:1016300030E0F901E154FF4E8491F901ED52FF4E83
:10164000D491F901EF50FF4EC491CC23A1F0811148
:101650000E94EC0AEC2FF0E0EE0FFF1FE951FF4E65
:10166000A591B491EC91ED2381E090E009F480E044
:10167000DF91CF91089580E090E0FACF1F93CF9350
:10168000DF93282F30E0F901E154FF4E8491F901F6
:10169000ED52FF4ED491F901EF50FF4EC491CC238F
:1016A000A9F0162F81110E94EC0AEC2FF0E0EE0F4A
:1016B000FF1FEB54FF4EA591B4918FB7F894EC91B6
:1016C000111108C0D095DE23DC938FBFDF91CF913D
:1016D0001F910895DE2BF8CFCF93DF9390E0FC01AC
:1016E000ED52FF4E24918F509F4EFC018491882330
:1016F000C9F090E0880F991FFC01E555FF4EA591B8
:10170000B491FC01EB54FF4EC591D49161110DC011
:101710009FB7F8948C91209582238C9388812823FD
:1017200028839FBFDF91CF910895623051F49FB716
:10173000F8943C91822F809583238C93E8812E2B03
:10174000EFCF8FB7F894EC912E2B2C938FBFEACF6D
:101750008E50806480937C0080917A0080648093B6
:101760007A0080917A0086FDFCCF8091780090917C
:10177000790008953FB7F894809138059091390524
:10178000A0913A05B0913B0526B5A89B05C02F3F17
:1017900019F00196A11DB11D3FBFBA2FA92F982F97
:1017A0008827BC01CD01620F711D811D911D42E092
:1017B000660F771F881F991F4A95D1F708958F925A
:1017C0009F92AF92BF92CF92DF92EF92FF924B0126
:1017D0005C010E94BA0B6B017C010E94BA0B6C1970
:1017E0007D098E099F09683E734081059105A8F324
:1017F00021E0821A9108A108B10888EEC80E83E0A2
:10180000D81EE11CF11C81149104A104B10429F734
:10181000FF90EF90DF90CF90BF90AF909F908F9010
:1018200008952FB7F8946091340570913505809133
:101830003605909137052FBF0895089508950DB48A
:1018400007FEFDCF2898209A2A9A22988CB58F7B84
:101850008CBD08958CB580648CBD2A98229A089519
:101860002F923F924F925F926F927F928F929F92B0
:10187000AF92BF92CF92DF92EF92FF920F931F939E
:10188000CF93DF93EC010E811F818F849888AC8009
:10189000BD80B8016A197B0990E080E00E94942E17
:1018A0006B017C016D8570E090E080E00E94962ED7
:1018B0002B013C013B802A808C858230C0F58A1840
:1018C0009B08B40190E080E00E94942EA70196014D
:1018D0000E94C230A30192010E94F52E0E943B316A
:1018E000162F862F820D43E0480FEE24E39401E08B
:1018F000232D632D0E9456096B816F5F8A818F5F54
:1019000021E041E0810FDF91CF911F910F91FF9076
:10191000EF90DF90CF90BF90AF909F908F907F908F
:101920006F905F904F903F902F900C941909081979
:101930001909B80190E080E00E94942EA701960159
:101940000E94C230A30192010E94F52E0E943B31F9
:10195000162F630D87E0820D23E0260FEE24E3941B
:1019600001E0482F0E9456096B816F5F610F8A81E9
:1019700021E041E08A5FC7CFCF92DF92EF920F93D1
:10198000CF93DF936C01FC01C5858485823040F5DF
:10199000D281CD0FCE5FDF5FF601DC1770F463817B
:1019A00028E0260F6B5FE0901806009117064D2F78
:1019B0008D2F0E945609DE5FEFCFD281DF5FDC17EB
:1019C000B0F5F601638125E0260F6D5FE090180603
:1019D000009117064D2F8D2F0E945609D65FEFCF2D
:1019E000D381CD0FCE5FDF5FF601CD1768F0828126
:1019F00043E0480FE0901806009117062D2F6D2F39
:101A00000E945609DE5FF0CFD381DF5FCD1778F0FB
:101A1000F601828145E0480FE09018060091170614
:101A20002D2F6D2F8D5F0E945609D65FEFCFDF916E
:101A3000CF910F91EF90DF90CF9008951F93CF93A8
:101A4000DF93EC018E819F810E94BE09182F8C814B
:101A50009D810E94BE09912F181708F4982F9B872B
:101A6000DF91CF911F910895CF93DF93EC01E8812F
:101A7000F9810280F381E02D0995E881F9810084E4
:101A8000F185E02DCE010995E881F9810190F08181
:101A9000E02DCE01DF91CF910994CF93DF93EC013C
:101AA0008E819F8186179707A4F08C819D8168178E
:101AB00079077CF0CB01798768870E94BE098A8705
:101AC000E881F9810190F081E02DCE01DF91CF9185
:101AD0000994DF91CF9108955F926F927F928F92D8
:101AE0009F92AF92BF92CF92DF92EF92FF920F93AD
:101AF0001F93CF93DF93EC016A3031F48C859F8183
:101B0000890F8C871B86C4C06D3009F4C1C0162FA5
:101B10008985681708F4AEC02A85280F3327331F3C
:101B2000621713060CF0A6C0CD80BC80DC84AB84A9
:101B3000181B7F8076947694769421E02715A8F17F
:101B40000A2D902F9A198E81891708F493C0E0E02E
:101B5000891791F0A885B0E0AA0FBB1FAE58BC4F03
:101B6000189FF001112436969F01290F311DED9128
:101B7000FC91E20FF31FE491912CEE2EF12C6D2DD0
:101B8000690D2C2D4B2DE0FD04C041E0B11040E06B
:101B90002C2D802F0E941909F701F595E795939454
:101BA00038E09312EACF0F5FCCCFED85FE852E8112
:101BB00030E0012F10E0CF01B9010E941032C801BE
:101BC0000E9410327E9EA0017F9E500D1124469FE0
:101BD0008001479F100D569F100D1124829FA00178
:101BE000839F500D929F500D1124040F151FF12C4F
:101BF000E12C0A5F1F4F6A2CE62DEA198E81E81747
:101C000088F5A885B0E0AA0FBB1FAE58BC4F8D85E4
:101C10009E85E89E4001E99E900CF89E900C112450
:101C2000800E911E8E0E911CED91FC91E80DF91D18
:101C3000E491512C8E2E912C652D6D0D2C2D4B2D5C
:101C4000E0FD04C041E0B11040E02C2D862D0E9443
:101C50001909F401F595E795539488E05812EACFF5
:101C60006394CACF2FEFE21AF20A38E0D30EE714DA
:101C700008F4C1CF9E818B85890F8F5F8B8720E40D
:101C800030E0291B31098217130611F00CF036CF12
:101C900081E090E0DF91CF911F910F91FF90EF9045
:101CA000DF90CF90BF90AF909F908F907F906F907C
:101CB0005F9008950C946C0D0DB407FEFDCF089550
:101CC000CF93DF93D82FC62F0E942A0CDEBD0E942F
:101CD0005C0ECEBDDF91CF910C941F0CCF93DF93A0
:101CE00060E080E20E94600E0E942A0C81E28EBDBC
:101CF0000E945C0E80E28EBD0E945C0E8FE58EBD60
:101D00000E941F0C0E942A0C82E28EBD0E945C0E73
:101D10001EBC0E945C0E85E08EBD0E941F0C0E94BE
:101D20002A0C289A2098809193018EBDC4E9D1E0B5
:101D30000E945C0E89918EBD83E0C331D807C1F744
:101D40000E941F0C62E080E2DF91CF910C94600E44
:101D50000895089590E080E00895CF92DF92EF9289
:101D6000FF92CF93DF9320918801222391F16B01A1
:101D7000EC010E94110C0D2C000CEE08FF08C60EA1
:101D8000D71EE81EF91E9E01DD0F440B550B60E2C5
:101D900071EA87E090E00E94C92F220F331F220FC3
:101DA000331FE90125970E94110C6C157D058E05E6
:101DB0009F0578F461E086E00E943E0BCE0101971A
:101DC000F1F760E086E00E943E0BCE010197F1F74B
:101DD000EACFDF91CF91FF90EF90DF90CF90089501
:101DE0006CE870E080E699E00E94AD0E64E670E079
:101DF00080E090E00E94DF0B6CE870E080EA9FE0FA
:101E00000E94AD0E64E670E080E090E00E94DF0B7F
:101E10006CE870E080E699E00E94AD0E64E670E048
:101E200080E090E00E94DF0B6CE870E080EA9FE0C9
:101E30000C94AD0E20917501309176018091630173
:101E4000909164012817390709F046C02091770165
:101E500030917801809165019091660128173907CA
:101E6000D9F59091790180916701981335C020913F
:101E70007A0130917B018091680190916901281766
:101E8000390751F520917C0130917D0180916A01E3
:101E900090916B0128173907F9F490918201809194
:101EA0007001981319C020917E0130917F018091BB
:101EB0006C0190916D012817390771F481E0409110
:101EC0008301509184012091710130917201421778
:101ED000530719F480E0089581E0089590918501F9
:101EE0008091530198134CC0209186013091870155
:101EF00080915401909155012817390709F040C08D
:101F0000909188018091560198133AC020918901DF
:101F100030918A0180915701909158012817390713
:101F200079F520918B0130918C018091590190912C
:101F30005A012817390721F520918F01309190011E
:101F400080915D0190915E0128173907C9F42091B5
:101F500091013091920180915F0190916001281769
:101F6000390771F481E040918D0150918E012091EB
:101F70005B0130915C014217530719F480E008952A
:101F800081E008958FE00E94A80B803921E092073C
:101F900034F08438934034F082E090E0089590E08B
:101FA00080E0089581E090E0089582E10E94A80B0E
:101FB000803921E0920774F08C3B22E092076CF0AC
:101FC000803223E0920764F08438934064F081E02B
:101FD00090E0089590E080E0089584E090E0089516
:101FE00083E090E0089582E090E008958EE00E9402
:101FF000150B21E0892B09F020E0822F08959091A4
:102000007901933030F49F5F81E0943609F080E0ED
:10201000089594E6F9CFEF92FF920F931F93CF9319
:10202000DF93209182012330D1F58B01EC0188816F
:10203000811112C0E0902005F09021050E94F60F5A
:10204000882339F08FEFE81AF80AF0922105E09220
:1020500020058881882379F0E0902005F090210503
:102060000E94F60F811107C0EFEFEE1AFE0AF09200
:102070002105E09220058091200590912105C397CC
:1020800074F01092210510922005888191E0892733
:102090008883882321F0F80180818F5F8083DF911E
:1020A000CF911F910F91FF90EF9008958F929F9283
:1020B000AF92BF92CF92DF92EF92FF920F931F9356
:1020C000CF93DF93882341F010921C0510921D05D9
:1020D00010921E0510921F05C0916101D0916201FE
:1020E00000917301109174010C171D0754F4809135
:1020F0007E0190917F01892BB1F4109362010093CE
:1021000061018091610190916201DF91CF911F91F6
:102110000F91FF90EF90DF90CF90BF90AF909F9086
:102120008F900C94E308C0901C05D0901D05E090A2
:102130001E05F0901F05C114D104E104F10451F013
:102140000E94110C9B01AC012C193D094E095F093D
:1021500069017A010E94110C4B015C0120917E0102
:1021600030917F01032E000C440B550BC701B601C3
:102170000E941F30861A970AA80AB90A80921C0585
:1021800090921D05A0921E05B0921F056AE0629F05
:10219000C001639F900D1124C81BD90BC017D10734
:1021A0000CF4E801D0936201C0936101AACF60E012
:1021B00081E00E943E0B88EE93E00C94E30860E01F
:1021C00081E00E943E0B81E00C945610DC01ED9101
:1021D000FD918081ED91FD919081ED91FD916C914A
:1021E00063708E2309F064609F2309F06860E3E068
:1021F000F1E1E60FF11D659565956D936D917D910A
:102200008D919D91099423C01AC012C016C010C0B0
:102210001EC009C014C013C006C019C009C00DC03B
:1022200007C00DC014C062507040804090400BC089
:10223000615070408040904006C06E5F01C06F5F8B
:102240007F4F8F4F9F4F9E938E937E936E930895F3
:1022500080912206909123060C94E610809124062A
:10226000909125060C94E61080915606823078F401
:10227000F8948BE496E00E94E6106091520670910B
:102280005306809154069091550678940895F894D9
:10229000F4CFFB0101900020E9F73197AF01461B15
:1022A000570B0C94DF098F929F92AF92BF92EF92DF
:1022B000FF920F931F93CF93DF93CDB7DEB7A19714
:1022C0000FB6F894DEBF0FBECDBF7C01FA01CB0183
:1022D00019A2223008F42AE08E010F5D1F4F822ED2
:1022E000912CB12CA12CBF01A50194010E941F309B
:1022F000F901CA016A300CF5605DD8016E938D0159
:10230000232B242B252B79F790E080E0109721F0E8
:10231000BD01C7010E944911A1960FB6F894DEBF16
:102320000FBECDBFDF91CF911F910F91FF90EF9026
:10233000BF90AF909F908F900895695CDECFCF9251
:10234000DF92EF92FF920F931F93CF93DF936B0176
:10235000770FEE08FF08F7FE1BC0EC016DE20E944C
:102360005A0E8C0144275527BA014C195D096E0994
:102370007F092AE0CE010E945311800F911FDF9147
:10238000CF911F910F91FF90EF90DF90CF90089524
:102390002AE0B701A601DF91CF911F910F91FF9025
:1023A000EF90DF90CF900C9453118F929F92AF9249
:1023B000BF92CF92DF92EF92FF921F93CF93DF9362
:1023C0006B017C01B42E20E030E0A9010E948F2E29
:1023D000D0E0C0E087FF0AC06DE283E196E00E9492
:1023E0005A0EEC01F7FAF094F7F8F09410E060E080
:1023F00070E080E09FE31B1541F020E030E040E218
:1024000051E40E94C2301F5FF6CFA70196010E94DF
:1024100051306B017C010E943B314B015C012AE091
:10242000BC01A40183E196E00E945311C80FD91F9B
:102430001123D1F1C501B4010E94942E9B01AC017E
:10244000C701B6010E9450306B017C016EE283E14E
:1024500096E00E945A0EC80FD91F115028F120E0B3
:1024600030E040E251E4C701B6010E94F52E4B0175
:102470005C010E943B316B01F12CE12C2AE0B70199
:10248000A60183E196E00E945311C80FD91FC7012E
:10249000B6010E94942E9B01AC01C501B4010E94BB
:1024A00050306B017C01D9CFCE01DF91CF911F91CC
:1024B000FF90EF90DF90CF90BF90AF909F908F9064
:1024C00008956115710511F00C94491190E080E0B8
:1024D00008950F931F93CF93DF93EC018B01CB01F2
:1024E0000E94BE09CB85C81BCC2341F060EA73E093
:1024F00083E196E00E946112C150F6CFB80183E1FA
:1025000096E0DF91CF911F910F910C949F11CF9383
:10251000DF93EC01E881F9810084F185E02D0995D4
:1025200088859985988B8F87E881F9810084F1856A
:10253000E02DCE0109958E85811119C09A819F5F8A
:102540002B85822F880F820F981B8B812C8590936F
:102550001E06222351F0865F80931F066F857889BF
:10256000CE01DF91CF910C946912855FF5CFDF9199
:10257000CF910895CF93DF93EC01E881F981008436
:10258000F185E02D099588859985988B8F87E8815D
:10259000F9810084F185E02DCE0109958E858111A8
:1025A00024C08B819A812C852130A1F020F022302B
:1025B000A9F0975F17C02D85920F9C5F90931E0620
:1025C0008F5F80931F066F857889CE01DF91CF9151
:1025D0000C94691290931E06865FF3CF2D85820FAF
:1025E0008C5F9F5F90931E06ECCFDF91CF91089593
:1025F0004F925F926F927F92AF92BF92CF92DF9293
:10260000EF92FF920F931F93CF93DF935C018B01A7
:102610006A01D22F0E94341140902C0550902D0554
:1026200060902E0570902F05DC01CB01840D951D67
:10263000A61DB71D80932C0590932D05A0932E0504
:10264000B0932F05F89410925206109253061092F0
:10265000540610925506789460912C0570912D05C2
:1026600080912E0590912F052B013C0197FF07C00B
:10267000442455243201461A570A680A790A24E08C
:102680004216510461047104DCF0D501CC91C111F2
:1026900002C097FD0DC024E030E040E050E00E9411
:1026A000C92F2C0F2D1710F02FEF2D0FF5012083C0
:1026B00010922C0510922D0510922E0510922F05C8
:1026C00010921E068EE080931F06B80183E196E00B
:1026D0000E94611281E00E94AF08D501EC91F0E008
:1026E000EE0FFF1FEC0DFD1D80819181FC012191FA
:1026F000AF01481B590B2111FACF80911A06909116
:102700001906949F9001959F300D1124C8E3D0E0E5
:10271000C21BD30BC230D10574F1D595C795219753
:10272000CD31D10514F0CCE1D0E010E034E3F32E4C
:10273000F80EE12C00E02F2D412F6AE1812F0E943D
:1027400056091F5F1733A9F7C0931E068AE18093CD
:102750001F06F501808190E0880F991FC80ED91ED1
:10276000D601CD91DC916991662339F083E196E041
:102770000E945A0EF8CFC0E0D8CF0E946E0E109281
:102780002E0180E0DF91CF911F910F91FF90EF908C
:10279000DF90CF90BF90AF907F906F905F904F9001
:1027A0000C94AF0880913105811128C010921E064B
:1027B00010921F066EE973E083E196E00E946112B9
:1027C0008091830190918401892B61F010921E0603
:1027D00010921F06609160057091610583E196E09B
:1027E0000E949F1110921E068EE080931F060E9489
:1027F0006E0E10922E0180E00C94AF080895809127
:1028000091019091920184369105C4F40A97C4F421
:102810008EE280931E0610921F0662EA73E083E147
:1028200096E00E946112609191017091920183E1A2
:1028300096E00E949F1180E00C94AF0882E2E9CFFD
:1028400088E2E7CF4F925F926F927F928F929F9232
:10285000AF92BF92CF92DF92EF92FF92CF93DF932E
:1028600080912E01882331F080915E0590915F0563
:102870000E94340D0E94110CAB01BC0180903D05FB
:1028800090903E05A0903F05B09040058091410595
:1028900090914205A0914305B0914405845D9E4FFF
:1028A000AF4FBF4F84179507A607B70708F06FC053
:1028B00081E10E94A80BBC01990F880B990B0E9423
:1028C000962E20E138E541EA50E40E94F52E20E002
:1028D00030E040E85AE30E94F52E2CE83EE24AEB55
:1028E0005DE30E94C23020E030E040E251E40E940B
:1028F000F52E0E943431072E000C880B990B0E9494
:10290000962E20E030E040E251E40E94C2302B01DC
:102910003C01E0902205F0902305E701CC0FDD1F7C
:10292000CC0FDD1FCB5BDA4F288139814A815B8177
:10293000C501B4010E9450309B01AC01488259820C
:102940006A827B82C301B2010E94513060933D05CF
:1029500070933E0580933F05909340058FEFE81AF2
:10296000F80AF0922305E092220586E0E816F104C9
:1029700024F010922305109222050E94110C6093FE
:10298000410570934205809343059093440520E0F0
:1029900030E040EC50E460913D0570913E0580913F
:1029A0003F05909140050E94C2306B017C0160910F
:1029B000890170918A01072E000C880B990B0E94E7
:1029C000962E20E030E040E251E40E94C2309B01AC
:1029D000AC01C701B6010E9451306B017C0120E0BF
:1029E00030E040E251E40E94F52E0E9434318091A3
:1029F0005E0590915F050E944D0D80915D058823D5
:102A000009F49EC00E94FF132DEC3CEC4CE251E413
:102A1000C701B6010E948F2E87FF23C08090240536
:102A200090902505A0902605B090270588EB880E8C
:102A30008BE0981EA11CB11C0E94110C86169706F3
:102A4000A806B90670F40E94D7100E9418250E94AB
:102A5000110C6093240570932505809326059093AF
:102A6000270523E333E34BE251E4C701B6010E949B
:102A70008F2E87FF23C08090240590902505A0907D
:102A80002605B09027058CED880E85E0981EA11CC8
:102A9000B11C0E94110C86169706A806B90670F4A0
:102AA0000E94D7100E9418250E94110C60932405E3
:102AB0007093250580932605909327052AE939E927
:102AC00049E251E4C701B6010E948F2E87FF23C05F
:102AD0008090240590902505A0902605B0902705AC
:102AE00088EE880E83E0981EA11CB11C0E94110C78
:102AF00086169706A806B90670F40E94D7100E94A1
:102B0000F00E0E94110C60932405709325058093AC
:102B100026059093270520E030E048E251E4C70104
:102B2000B6010E948F2E87FF65C00E94D7100E94B9
:102B3000F00E68EC70E080E090E00E94DF0BF5CFD3
:102B400089E280931E0610921F0620E030E040E2EA
:102B500051E4C701B6010E948F2E87FF06C065EAC7
:102B600073E083E196E00E946112A7019601C7011C
:102B7000B6010E94B63167EA73E0811126C04601B2
:102B80005701E894B7F82FEF3FEF4FE75FE7C50134
:102B9000B4010E94B63181110CC02FEF3FEF4FE717
:102BA0005FE7C501B4010E948F2E6BEA73E018162F
:102BB00064F02FEF3FEF4FE75FE4C701B6010E94DB
:102BC000A93118163CF46FEA73E083E196E00E94A5
:102BD00049111ACF2FEF3FEF4FE75FECC701B60166
:102BE0000E948F2E87FDEFCF41E0C701B6010E9402
:102BF000D5110ACF88E380931E0687E280931F06D3
:102C000063EB73E083E196E0DF91CF91FF90EF906B
:102C1000DF90CF90BF90AF909F908F907F906F90FC
:102C20005F904F900C946112E3E9F1E080E891E04D
:102C3000DF019C011D9221503040E1F70895CF92B1
:102C4000DF92EF92FF920F931F93CF93DF93EB01ED
:102C50007B0120E1E20EF11C8B016C01C61AD70A40
:102C6000C601800F911F0E94B32FF80181938F013D
:102C7000EE15FF05A9F7CE01DF91CF911F910F91BE
:102C8000FF90EF90DF90CF900895482F4150550B63
:102C90009A0144E1429FC001439F900D112465E7D2
:102CA00071E048960E941F1680E1E5E7F1E0A3E697
:102CB000B1E001900D928A95E1F762E370E080EA5D
:102CC0009FE00E94AD0E62E370E080E090E00E9421
:102CD000DF0B64E670E080EA9FE00C94AD0EFC012F
:102CE00080819181009711F00C94D53208950C9455
:102CF000D5320C94D5320C94D532EF92FF920F93CB
:102D00001F93CF93DF93EC017B018A018881998126
:102D1000009729F02A813B812417350788F4B801F0
:102D20006F5F7F4F0E945E33009791F09983888395
:102D30001B830A832C813D81232B11F4FC0110821B
:102D40001D830C83B701888199810E942F340CC0A8
:102D500088819981009711F00E94D53219821882DA
:102D60001D821C821B821A82CE01DF91CF911F919E
:102D70000F91FF90EF900895FC0111821082138251
:102D8000128215821482FB0101900020E9F731972D
:102D9000AF01461B570B0C947D16AF92BF92CF929A
:102DA000DF92EF92FF920F931F93CF93DF93EC018B
:102DB0006B015A0179012417350720F48B2D590135
:102DC000E42EF82E61EA73E0CE010E94BC16D60113
:102DD00014960D911C91A016B10628F5E016F10687
:102DE00008F48701D601ED91FC911197E00FF11FD6
:102DF000F08010826D917C916A0D7B1D61157105CB
:102E0000F1F0FB0101900020E9F73197AF01461B7B
:102E1000570BCE010E947D16F60180819181080F2B
:102E2000191FD801FC92CE01DF91CF911F910F9114
:102E3000FF90EF90DF90CF90BF90AF900895888182
:102E40009981009711F00E94D532198218821D8253
:102E50001C821B821A82E0CF4F925F926F927F9208
:102E60008F929F92AF92BF92CF92DF92EF92FF929A
:102E70000F931F93CF93DF9300D000D000D01F9209
:102E8000CDB7DEB79F838E83FC01A480B5806785B4
:102E900070896A197B0990E080E00E94942E6B0192
:102EA0007C01EE81FF81668177816A197B0990E060
:102EB00080E00E94942E9B01AC01C701B6010E94E4
:102EC000C23020E030E040E753E40E94F52E20E0DD
:102ED00030E046E153E40E94513025E33AEF4EE8FA
:102EE0005CE30E94F52E2B013C010E94BD304B019A
:102EF0005C01EE81FF81658570E090E080E00E94DA
:102F0000962E2AE939E949E95FE30E94C2306B0154
:102F10007C01C301B2010E94AE3169837A838B8345
:102F20009C83EE81FF811381F281FD83612F70E02C
:102F30006F5F7F4F072E000C880B990B0E94962E17
:102F40002B013C0129813A814B815C81C701B6018B
:102F50000E94F52E9B01AC01C301B2010E945130C9
:102F60000E943B3169838D81682F70E06F5F7F4FD6
:102F7000072E000C880B990B0E94962E2B013C010A
:102F8000A7019601C501B4010E94F52E9B01AC0179
:102F9000C301B2010E9451300E943B31462FEE2402
:102FA000E39401E02981612F8D810E9456092796C3
:102FB0000FB6F894DEBF0FBECDBFDF91CF911F914A
:102FC0000F91FF90EF90DF90CF90BF90AF909F90C8
:102FD0008F907F906F905F904F9008952F923F92C7
:102FE0004F925F926F927F928F929F92AF92BF9219
:102FF000CF92DF92EF92FF920F931F93CF93DF93C5
:10300000CDB7DEB72F970FB6F894DEBF0FBECDBF9A
:103010001C01FC01F585F983FC01B380A280C090FE
:103020001806D090170681E0982EF9819F1A8F2EEE
:103030008194880C6F2F6B0D2C2D4D2D8A2D0E94A5
:1030400019096B2D2981621B2C2D4D2D8A2D0E9473
:1030500019092C2D4D2D6B2D89818A0D0E9419097E
:103060002C2D4D2D6B2D8A2D3981831B0E94190922
:103070001D828D81998189170CF053C097FC05C082
:103080009150998383948394980CED81EF5FED8345
:103090008E2F880F8F5F980E7E2E7A0C2C2D4D2D43
:1030A000F980FB0C6F2D872D0E941909EA2CFD81F8
:1030B000EF1A2C2D4D2D6F2D8E2D0E9419092C2DC0
:1030C0004D2DFB2C3981F31A6F2D872D0E94190984
:1030D0002C2D4D2D6F2D8E2D0E941909FD80FB0C7E
:1030E0002C2D4D2D6F2DE980EA0C8E2D0E94190993
:1030F0002C2D4D2D6F2DFA2C8981F81A8F2D0E94C1
:1031000019097B2C9D81791A2C2D4D2D672D8E2D23
:103110000E9419092C2D4D2D672D8F2D0E94190904
:10312000A8CFE6E9F0E0FF87EE872E853F85B9015D
:10313000330F880B990B0E94962E25E33AEF4EE849
:103140005CE30E94F52E2B013C010E94BD304B0137
:103150005C01F101658570E090E080E00E94962EB0
:103160006B017C0120E030E040EC5FE30E94C23064
:1031700069877A878B879C87C301B2010E94AE3131
:103180002B013C01F101638170E06F5F7F4F072EDF
:10319000000C880B990B0E94962E69837A838B838F
:1031A0009C83F101628170E06F5F7F4F072E000CFE
:1031B000880B990B0E94962E6D837E838F83988750
:1031C000A3019201C701B6010E94F52E29813A811F
:1031D0004B815C810E9451300E943B316D87A70179
:1031E0009601C501B4010E94F52E2D813E814F81CB
:1031F00058850E9451300E943B31162FA301920145
:1032000069857A858B859C850E94F52E29813A8176
:103210004B815C810E9451300E943B31F62E298502
:103220003A854B855C85C501B4010E94F52E2D8140
:103230003E814F8158850E9451300E943B31862F3C
:10324000E0901806009117062D85412F6F2D0E94E2
:1032500056092E853F85225E3F4F3F872E87243AB1
:10326000314009F062CFF1018585803108F4A2C0B8
:1032700025EA30E03F872E87EE85FF85BF01FF0FEF
:10328000880B990B0E94962E25E33AEF4EE85CE3FB
:103290000E94F52E2B013C010E94BD304B015C01C8
:1032A000F101658570E090E080E00E94962E6B0150
:1032B0007C0126E636E646EA5FE30E94C230698773
:1032C0007A878B879C87C301B2010E94AE312B01A4
:1032D0003C01F101638170E06F5F7F4F072E000CAE
:1032E000880B990B0E94962E69837A838B839C832B
:1032F000F101628170E06F5F7F4F072E000C880B39
:10330000990B0E94962E6D837E838F839887A301ED
:103310009201C701B6010E94F52E29813A814B81A5
:103320005C810E9451300E943B31162FA70196010B
:10333000C501B4010E94F52E2D813E814F81588533
:103340000E9451300E943B31F62EA3019201698503
:103350007A858B859C850E94F52E29813A814B8147
:103360005C810E9451300E943B31D62E29853A85DE
:103370004B855C85C501B4010E94F52E2D813E81EF
:103380004F8158850E9451300E943B31862FE0903A
:10339000180600911706212F4F2D6D2D0E945609FA
:1033A0002E853F85225E3F4F3F872E87253931404E
:1033B00009F062CF2F960FB6F894DEBF0FBECDBFD7
:1033C000DF91CF911F910F91FF90EF90DF90CF9001
:1033D000BF90AF909F908F907F906F905F904F9035
:1033E0003F902F9008953F924F925F926F927F92FD
:1033F0008F929F92AF92BF92CF92DF92EF92FF9205
:103400000F931F93CF93DF93EC015B013A012901E6
:103410008091280590912905892BC9F581E190E0DB
:103420000E9439324C018AE593E0F4019183808354
:1034300080E182838EE183831582148284E690E0AA
:103440009783868311861086332433943286C40191
:103450000E941E0D82E293E0F401918380838085B7
:103460009185908B8787368614868FE08587C40187
:103470000E94EE17C4010E942C17C4010E948712FB
:103480009092290580922805C4010E94340D8090F5
:10349000280590902905F40175826482C4010E9478
:1034A0001E0DF40157824682C4010E941E0D8091B8
:1034B0002E01882329F0C4010E94340D10922E01A0
:1034C00010921E0684E080931F06F5014481558109
:1034D0006081718183E196E00E94DF090E943411CE
:1034E00080902C0590902D05A0902E05B0902F0572
:1034F000DC01CB01880D991DAA1DBB1D80932C05F5
:1035000090932D05A0932E05B0932F05F89410925B
:103510005206109253061092540610925506789453
:1035200060912C0570912D0580912E0590912F05AD
:103530009601DD0C440B550B4B015C0197FF07C056
:10354000882499245401861A970AA80AB90A82166F
:103550009306A406B50624F4E0912E01EE23C1F0F3
:103560000E94C92F88819981280F391F20173107A0
:103570002CF08901E216F3060CF487011983088305
:1035800010922C0510922D0510922E0510922F05E9
:103590008EE180931E0688E280931F066881798100
:1035A00083E196E00E949F11888199810A9734F403
:1035B00060EA73E083E196E00E946112888199815C
:1035C0008436910534F460EA73E083E196E00E946A
:1035D00061126881798180912805909129050E9466
:1035E0004D0DDF91CF911F910F91FF90EF90DF90E4
:1035F000CF90BF90AF909F908F907F906F905F9093
:103600004F903F900C946E0EFF920F931F93CF93A9
:10361000DF93EC01F62E08811981C8010E94B32FB7
:10362000F81621F06F2DC8010E94BB2FCE01DF914B
:10363000CF911F910F91FF900895CF92DF92EF925B
:10364000FF920F931F93CF93DF9300D0CDB7DEB7D8
:103650006C017C0108E010E01A830983F701619195
:103660007F01CE0101960E94041B0F5F1F4F0631A0
:10367000110591F7C6010F900F90DF91CF911F9127
:103680000F91FF90EF90DF90CF9008950E946E0F02
:10369000882369F085E891E00E941D1B8EE0E5E833
:1036A000F1E0A3E5B1E001900D928A95E1F708956C
:1036B000CF92DF92EF92FF920F931F93CF93DF93FE
:1036C0000E94D50F0497E1F30E94141686E08093C0
:1036D0001E0610921F0665EB73E083E196E00E94E0
:1036E000611280918D0190918E01892B09F0B3C0F8
:1036F00089E080931E0684E180931F0660ED73E0ED
:1037000083E196E00E94611265EC73E083E196E04C
:103710000E9461120E946E0E80918D0190918E0127
:10372000892B09F0A1C060E570E080E699E00E9475
:10373000AD0E60E570E080E496E00E94AD0E6CE8AE
:1037400070E080E699E00E94AD0E0FEF1FEFD0E031
:10375000C0E08AE0D82E94E2C92E0E94D50F7C01E9
:10376000892BD9F30E94D50F892BE1F768E770E028
:1037700080E699E00E94AD0E84E0E816F104F1F0D5
:103780000230110530F4CE01D89EE001D99ED00D53
:103790001124CE0DDF1D1C161D065CF410921E06B2
:1037A000C0921F06BE0183E196E00E949F110E9415
:1037B0006E0E0F5F1F4F0230110579F66CE271E05B
:1037C00080E090E00E94DF0B80918D0190918E014E
:1037D000C536D1050CF4ACC0009709F058C0D093A1
:1037E0008E01C0938D010E94461B0E94141686E034
:1037F00080931E0682E180931F066BEC73E083E1E9
:1038000096E00E94611210921E0684E280931F06C9
:1038100060918D0170918E0183E196E00E949F116D
:103820000E946E0E60E570E080E496E00E94AD0EAE
:1038300062E370E080E090E00E94DF0B6CE870E0F3
:1038400080E699E00E94AD0E6CE271E080E090E0CD
:103850000E94DF0B61C083E080931E0684E18093A9
:103860001F066FEB73E04CCF6CE870E080E496E0ED
:103870000E94AD0E6CE870E080EB94E00E94AD0E0B
:1038800068EC70E080E090E00E94DF0B5ECF8C1768
:103890009D0709F041C010928E0110928D010E9487
:1038A000461B0E94141688E080931E0680E18093D8
:1038B0001F0664ED73E083E196E00E9461120E94AE
:1038C0006E0E60E570E080E699E00E94AD0E6EE15C
:1038D00070E080E090E00E94DF0B60E570E080E641
:1038E00099E00E94AD0E6EE170E080E090E00E94F1
:1038F000DF0B60E570E088EB9BE00E94AD0E64E6B4
:1039000070E080E090E00E94DF0B10923005109292
:10391000310581E080932E010E941416DF91CF9132
:103920001F910F91FF90EF90DF90CF900C946E0E4F
:10393000892B19F481E08093310560E570E080E423
:1039400096E00E94AD0E68EC70E080E090E080CFE1
:10395000AF92BF92CF92DF92EF92FF920F931F939D
:10396000CF93DF9300D0CDB7DEB78B016B0120E1A1
:10397000C20ED11C7B015C01A61AB70AC5018E0DCF
:103980009F1D9A838983F70161917F01CE01019682
:103990000E94041BEC14FD0489F7C8010F900F90DE
:1039A000DF91CF911F910F91FF90EF90DF90CF901B
:1039B000BF90AF900895AF92BF92CF92DF92EF92F7
:1039C000FF920F931F93CF93DF9300D000D000D0CE
:1039D000CDB7DEB7A0918601B09187012FEF30E01F
:1039E0000E94323224E630E040E050E00E94C92FCD
:1039F000622F81E80E94600E0E942214809131059E
:103A0000882309F4B3C00E94341100912C05109151
:103A10002D0520912E0530912F05DC01CB01800F63
:103A2000911FA21FB31F80932C0590932D05A09387
:103A30002E05B0932F05F89410925206109253065B
:103A40001092540610925506789460912C0570914E
:103A50002D0580912E0590912F058B019C0197FFDC
:103A600007C0002711279801061B170B280B390BDD
:103A7000083011052105310504F1109130051111AF
:103A800002C097FD0CC028E030E040E050E00E940A
:103A9000C92F210F253108F024E120933005109221
:103AA0002C0510922D0510922E0510922F056AE01C
:103AB00070E080ED97E00E94AD0E10921E0610920D
:103AC0001F0669E574E083E196E00E946112E091CF
:103AD0003005F0E0EE0FFF1FE45DFC4FA080B180E9
:103AE000F5018191AF014A195B098111FACF8091EB
:103AF0001A0690911906949F9001959F300D1124FC
:103B000048E3C42ED12CC21AD30A92E0C916D104BC
:103B10005CF1D594C794E1E0CE1AD108FDE1CF164F
:103B2000D1041CF02CE1C22ED12C10E094E3F92E2C
:103B3000F80EE12C00E02F2D412F6AE1812F0E9429
:103B400056091F5F1733A9F7C0921E068AE18093BA
:103B50001F06F50161915F01662309F4FCC283E150
:103B600096E00E945A0EF5CFC12CDFCFE0913005D0
:103B7000E53108F0B0C0F0E0E054F24E0C9424328D
:103B8000D51DBC1EDA1EF51E0D1F171F301F491F45
:103B9000511F691F811F23212B21442162216A218A
:103BA000822185219D21A521BD210E94D2136DED89
:103BB00073E083E196E00E9461126091750170915B
:103BC000760183E196E00E949F1110921E068AE121
:103BD00080931F0664EE73E083E196E00E94611219
:103BE000609177017091780183E196E00E949F11C6
:103BF00010921E0686E280931F0669EE73E083E151
:103C000096E00E946112E0917901F0E0EE0FFF1F53
:103C1000E55BFE4F6081718183E196E00E94611255
:103C20000E946E0E10922E0180E00E94AF088091DB
:103C3000830190918401892B09F44DC00E943411B5
:103C400000912C0510912D0520912E0530912F0506
:103C5000DC01CB01800F911FA21FB31F80932C05A5
:103C600090932D05A0932E05B0932F05F8941092F4
:103C700052061092530610925406109255067894EC
:103C800080912C0590912D05A0912E05B0912F05C6
:103C9000B7FF07C0B095A095909581959F4FAF4F06
:103CA000BF4F0497A105B105B4F010922C051092F6
:103CB0002D0510922E0510922F056AE070E080ED20
:103CC00097E00E94AD0E80918301909184019093C2
:103CD0006105809360050E94D50F6C01892B09F462
:103CE00033C40E94D50F20912A05049709F0B7C369
:103CF00021112EC080913105882309F473C31092DD
:103D00002B058091310591E08927809331058091C1
:103D10005D05882371F0E0913005F0E0EE0FFF1FA4
:103D2000E45DFC4F208131812E54344011F4909396
:103D300031050E94141681E080932E01F8941092B0
:103D4000520610925306109254061092550678941B
:103D500081E080932A0526960FB6F894DEBF0FBE49
:103D6000CDBFDF91CF911F910F91FF90EF90DF902A
:103D7000CF90BF90AF90089560EF73E0CE010196B1
:103D80000E94BC16CC24C394D12C14E6E12EF12C55
:103D900010E000E024E630E050E040E0BE016F5F5C
:103DA0007F4F83E891E00E94F319CE0101960E94B3
:103DB0006F1691CFE0909101F090920100918F01E8
:103DC0001091900165EF73E0CE0101960E94BC1640
:103DD000CC24C394D12C24E630E050E040E0BE0176
:103DE0006F5F7F4F85E791E0DECF6BEF73E0CE0131
:103DF00001960E94BC16CC24C394D12CF4E6EF2E7D
:103E0000F12C10E000E024E630E050E040E0BE019C
:103E10006F5F7F4F87E791E0C6CF24E04BE451E02E
:103E20006FEF73E089E791E00E94F81254CF65E0EC
:103E300074E0CE0101960E94BC16CC24C394D12C10
:103E400074EFE72EFF24F39406E910E024EF31E04D
:103E500046E950E0BE016F5F7F4F8AE791E0A3CF54
:103E60006CE074E0CE0101960E94BC16CC24C39491
:103E7000D12C54EFE52EFF24F39406E910E024EF53
:103E800031E046E950E0BE016F5F7F4F8CE791E083
:103E90008ACF24E043E451E063E174E082E891E0FA
:103EA000C3CF6CE174E0CE0101960E94BC1628E0FD
:103EB000C22ED12C39E1E32EF12C06E010E029E1ED
:103EC00030E046E050E0BE016F5F7F4F8EE791E04B
:103ED0006ACF63E274E0CE0101960E94BC1688E0CE
:103EE000C82ED12C9AE0E92EF12C10E000E02AE057
:103EF00030E050E040E0BE016F5F7F4F80E891E02E
:103F000052CF0E94341100912C0510912D05209163
:103F10002E0530912F05DC01CB01800F911FA21FD0
:103F2000B31F80932C0590932D05A0932E05B0937D
:103F30002F05F894109252061092530610925406D0
:103F400010925506789460912C0570912D05809102
:103F50002E0590912F058B019C0197FF07C000272C
:103F600011279801061B170B280B390B043011057C
:103F700021053105D4F010912B05111102C097FDD8
:103F80000CC024E030E040E050E00E94C92F210F37
:103F9000243008F023E020932B0510922C0510927A
:103FA0002D0510922E0510922F050E9414161091C7
:103FB0002B05112309F4D7C0812F8150990B9C0147
:103FC00044E1429FC001439F900D11246EE171E0D6
:103FD00048960E941F1680E00E94AF0810921E06AD
:103FE00010921F06E0912B01F0E0EE0FFF1FED5B3A
:103FF000FE4F6081718183E196E00E946112109210
:104000001E067DE0C72EC0921F0668E274E083E1C1
:1040100096E00E94611260911E0170911F0183E180
:1040200096E00E949F1110921E06EAE1DE2ED092C9
:104030001F066BE274E083E196E00E946112E0915A
:104040002201F0E0EE0FFF1FE55BFE4F6081718102
:1040500083E196E00E94611210921E06B7E2FB2EE9
:10406000F0921F066EE274E083E196E00E94611216
:10407000609120017091210183E196E00E949F11DF
:1040800000E200931E0610921F0661E374E083E1D4
:1040900096E00E946112609123017091240183E1F6
:1040A00096E00E949F1100931E06C0921F0664E3D3
:1040B00074E083E196E00E946112609125017091A5
:1040C000260183E196E00E949F1100931E06D09284
:1040D0001F0667E374E083E196E00E94611260913D
:1040E00027017091280183E196E00E949F110093BF
:1040F0001E06F0921F066AE374E083E196E00E94D8
:1041000061126091290170912A0183E196E00E9479
:104110009F1109E3D02EE12C01E020E34D2D67E251
:104120008D2D0E945609D39491E4D912F4CF1092A8
:1041300017068AE380931E0688E280931F06412FAC
:1041400050E070E060E02AE083E196E00E945311C5
:1041500081E0809317060E946E0E10922E0180E07F
:104160000E94AF08B8CD81E080932E0180915D055B
:1041700081110E94FF130E94221410921E068EE0ED
:1041800080931F066DE374E083E196E00E94611264
:1041900081E00E94AF08E0912B05F0E0EE0FFF1FD9
:1041A000E55CFE4F80819181FC012191AF01481BAC
:1041B000590B2111FACF80911A0690911906949FFC
:1041C0009001959F300D112448E3C42ED12CC21AC2
:1041D000D30AE2E0CE16D104A4F1D594C794F1E05D
:1041E000CF1AD1089DE1C916D1041CF09CE1C92E5B
:1041F000D12C10E004E3B02EB80EE12C00E02B2D02
:10420000412F6AE1812F0E9456091F5F1733A9F7DA
:10421000C0921E068AE180931F06E0912B05F0E014
:10422000EE0FFF1FE55CFE4F00811181F8016191E7
:104230008F01662309F48FCF83E196E00E945A0E26
:10424000F5CFC12CD6CF24E04BE351E062E474E01B
:104250008BE295E0E9CDE0909101F090920167E466
:1042600074E0CE0101960E94BC16CC24C394D12CDC
:1042700010E000E024E630E050E040E0BE016F5F77
:104280007F4F8FE891E08FCD80915D05811123CD27
:1042900000918F01109190016EE474E0CE010196BF
:1042A0000E94BC16CC24C394D12CF4E6EF2EF12C42
:1042B00024E630E050E040E0BE016F5F7F4F81E9CF
:1042C00091E071CD24E043E351E065E574E085E8D9
:1042D00091E0AACD6EE574E0CE0101960E94BC1675
:1042E00068E0C62ED12C79E1E72EF12C03E010E036
:1042F00029E130E043E050E0BE016F5F7F4F8BE883
:1043000091E051CD0E94581BE6CC65E674E0CE01E9
:1043100001960E94BC16CC24C394D12C54E6E52E01
:10432000F12C10E000E024E630E050E040E0BE0177
:104330006F5F7F4F86E891E036CD22E04FE251E09B
:104340006CE674E088E891E06FCD62E774E0CE013E
:1043500001960E94BC1628E0C22ED12C38E0E32E34
:10436000F12C08EF1FEF28E030E048EF5FEFBE01CF
:104370006F5F7F4F89E891E016CD10921E068EE0A8
:1043800080931F0669E774E083E196E00E94611262
:1043900010921E068AE180931F066EE774E083E1A7
:1043A00096E00E94611210921E0686E280931F061C
:1043B00064E874E083E196E00E94611242E066E600
:1043C00076E686E89FE30E94D511409164065091FD
:1043D0006506609160067091610683E196E00E9437
:1043E000DF09B9CEE0913005F0E0EE0FFF1FE45D8C
:1043F000FC4F00811181F4E00D331F0739F48091E7
:104400002B05882309F47DCC0E94451602541440E4
:1044100009F077CC20912B05222309F472CC21508E
:10442000330B44E1429FC001439F900D112465E787
:1044300071E048960E94A81C62E370E080ED97E06E
:104440000E94AD0E62E370E080E090E00E94DF0B1E
:1044500064E670E080ED97E00E94AD0E52CC211131
:104460007ACC6AE070E08CED95E00E94AD0E60EAD7
:1044700070E080E090E00E94DF0B0E94D50F8C1569
:104480009D0509F068CC80918501811103C08C2DB8
:104490000E944516809185018130B1F4C6010197D3
:1044A0004EE1489F9001499F300D112484E690E031
:1044B000821B930B909376018093750164E670E004
:1044C00080ED97E00E94AD0E809185018230B1F4BD
:1044D000C601019749E1489F9001499F300D112481
:1044E00084E690E0821B930B909378018093770190
:1044F00064E670E080ED97E00E94AD0E809185014A
:10450000833061F4F3E0CF16D104D1F480937901C4
:1045100064E670E080ED97E00E94AD0E11E010932C
:104520002A050E94141610932E01F8941092520638
:1045300010925306109254061092550678940BCCA4
:10454000CA94C0927901E4CF10922A0504CC0F934B
:104550001F93CF93DF9300D0CDB7DEB78B019A8343
:104560008983FB016081CE0101960E94041BC80172
:104570000F900F90DF91CF911F910F910895CF93DE
:10458000DF930E941416C3E1D6E01B861C8666E802
:1045900074E0CE010E9461121B868EE08C876FE86A
:1045A00074E0CE010E9461121B868CE18C8742E090
:1045B00066E676E686E89FE30E94D5110E946E0EBD
:1045C0006DE173E090E080E00E94A7226DE173E06E
:1045D00081E090E00E94A7221092690569E675E0EB
:1045E00084E090E00E94A72280E191E00E941D1BE0
:1045F0001092680568E675E084E690E00E94A722C4
:1046000060E071E086E690E00E94A81C60E071E046
:1046100088E190E00E94A81C60E071E08CE290E0EC
:104620000E94A81C60E071E080E490E00E94A81C59
:104630008EE0E0E1F1E0A5E8B1E001900D928A950D
:10464000E1F78EE0E0E1F1E0A3E5B1E001900D9249
:104650008A95E1F780E1E0E0F1E0A5E7B1E00190C3
:104660000D928A95E1F780E1E0E0F1E0A3E6B1E0A8
:1046700001900D928A95E1F768EE73E080E090E09A
:104680000E94DF0B62E370E088EB9BE00E94AD0EBE
:1046900062E370E080E090E00E94DF0B64E670E08F
:1046A00084EC99E00E94AD0E62E370E080E090E05F
:1046B0000E94DF0B68EC70E080ED97E00E94AD0E89
:1046C00064E670E080E090E00E94DF0B0E94141628
:1046D000DF91CF910C946E0E1F920F920FB60F9236
:1046E00011242F933F934F935F936F937F938F93F7
:1046F0009F93AF93BF93EF93FF9386E795E00E945C
:104700005D0AFF91EF91BF91AF919F918F917F9142
:104710006F915F914F913F912F910F900FBE0F902E
:104720001F9018951F920F920FB60F9211242F937E
:104730008F939F93EF93FF93E0918605F091870508
:104740008081E0918C05F0918D0582FD1BC09081E8
:1047500080918F058F5F8F7320919005821741F0B4
:10476000E0918F05F0E0EA58FA4F958F80938F051E
:10477000FF91EF919F918F912F910F900FBE0F900E
:104780001F9018958081F4CF1F920F920FB60F9251
:1047900011242F933F938F939F93AF93BF93809157
:1047A000340590913505A0913605B09137053091CB
:1047B000330523E0230F2D3758F50196A11DB11DB8
:1047C000209333058093340590933505A0933605E7
:1047D000B09337058091380590913905A0913A053D
:1047E000B0913B050196A11DB11D809338059093B2
:1047F0003905A0933A05B0933B05BF91AF919F91C6
:104800008F913F912F910F900FBE0F901F90189591
:1048100026E8230F0296A11DB11DD2CF1F920F9241
:104820000FB60F9211242F933F934F935F936F9383
:104830007F938F939F93AF93BF93EF93FF93E091F9
:104840001503F09116030995FF91EF91BF91AF9178
:104850009F918F917F916F915F914F913F912F9198
:104860000F900FBE0F901F9018951F920F920FB6CA
:104870000F9211242F933F934F935F936F937F93E6
:104880008F939F93AF93BF93EF93FF93E0911303A5
:10489000F09114030995FF91EF91BF91AF919F9112
:1048A0008F917F916F915F914F913F912F910F90D9
:1048B0000FBE0F901F9018951F920F920FB60F9278
:1048C00011242F933F934F935F936F937F938F9315
:1048D0009F93AF93BF93CF93DF93EF93FF93809119
:1048E0003205C0914A06D0E087FF24C010928500AF
:1048F00010928400809132058F5F80933205809101
:104900003205082E000C990B8C179D0724F480911A
:1049100032058C30C4F1809184009091850004961A
:1049200080349C4908F47AC080918400909185007D
:10493000049676C080913205082E000C990B8C17D6
:104940009D07C4F6E09132058E2FEE0F990BFC0106
:10495000EE0FFF1FE80FF91FEA5DF94F808186FF18
:10496000C9CFE09132058E2FEE0F990BFC01EE0FAF
:10497000FF1FE80FF91FEA5DF94F808160E08F7338
:104980000E943E0BB7CF2091840030918500E091CA
:1049900032058E2FEE0F990BFC01EE0FFF1FE80F73
:1049A000F91FEA5DF94F81819281820F931F9093E5
:1049B000890080938800E09132058E2FEE0F990BCD
:1049C000FC01EE0FFF1FE80FF91FEA5DF94F808130
:1049D00086FF11C0E09132058E2FEE0F990BFC017E
:1049E000EE0FFF1FE80FF91FEA5DF94F808161E0CC
:1049F0008F730E943E0BFF91EF91DF91CF91BF919A
:104A0000AF919F918F917F916F915F914F913F9166
:104A10002F910F900FBE0F901F90189580E49CE986
:104A200090938900809388008FEF80933205E3CFC5
:104A30006CE870E080E699E00E94AD0E6CE870E0F2
:104A400080EA9FE00E94AD0E68EC70E080EB94E09D
:104A50000C94AD0ECF93DF931092790510927805E8
:104A600088EE93E0A0E0B0E080937A0590937B0518
:104A7000A0937C05B0937D0584E893E0909377053F
:104A80008093760585EC90E0909383058093820572
:104A900084EC90E0909385058093840580EC90E011
:104AA000909387058093860581EC90E0909389052B
:104AB0008093880582EC90E090938B0580938A0523
:104AC00086EC90E090938D0580938C0510928F0575
:104AD0001092900510929105109292051092160670
:104AE0001092150686E993E09093140680931306BE
:104AF00068E974E080E696E00E94BC166EE774E018
:104B00008AE596E00E94BC1680914A068C3008F037
:104B100086C091E0980F90934A068093570690E0E4
:104B2000FC01EE0FFF1FE80FF91FEA5DF94F88EB5C
:104B30009BE09283818362E082E00E946C0B62E0E2
:104B400083E00E946C0BE3EFF0E1E491F0E0EE0F04
:104B5000FF1FE951FF4EA591B491B0934C06A0936D
:104B60004B06E5EDF0E1449140934F06E4EFF0E1B0
:104B7000E491F0E0EE0FFF1FE951FF4EC591D49193
:104B8000D0934E06C0934D06E6EDF0E1E491E0933C
:104B9000500610925206109253061092540610922C
:104BA00055062BE33FE1C9010197F1F79C91842F52
:104BB000892391E009F490E08881E82309F092606C
:104BC0002BE436E09093510630932306209322067F
:104BD00088E291E19093140380931303809169001C
:104BE0008C7F816080936900E89A81E0809356060B
:104BF00030932506209324068EE291E190931603CC
:104C00008093150380916900837F8460809369009D
:104C1000E99A82E080935606DF91CF9108958FEF55
:104C20008093570688CFCF93DF93CDB7DEB76497D5
:104C30000FB6F894DEBF0FBECDBF789484B5826006
:104C400084BD84B5816084BD85B5826085BD85B530
:104C5000816085BD80916E00816080936E001092AE
:104C60008100809181008260809381008091810029
:104C700081608093810080918000816080938000BA
:104C80008091B10084608093B1008091B000816018
:104C90008093B00080917A00846080937A00809144
:104CA0007A00826080937A0080917A00816080939C
:104CB0007A0080917A00806880937A001092C10017
:104CC000809157068C3008F051C061E085E00E9469
:104CD0006C0B80915706282F30E0F901EE0FFF1F73
:104CE000E20FF31FEA5DF94F9081907C956090830D
:104CF00010925806109259062CE0622F0E9404323E
:104D0000829FB001112430E020E0AB01420F531F1D
:104D1000FA01EE0FFF1FE40FF51FEA5DF94F9081D6
:104D200096FD16C02F5F3F4F2C30310571F7811172
:104D30000FC01092800082E0809381001092850065
:104D400010928400B19A80916F00826080936F000E
:104D5000E09157068E2F90E0FC01EE0FFF1FE80F49
:104D6000F91FEA5DF94F80818064808390E080E0E4
:104D70000E94E30880E00E94AF0881E0809317065C
:104D80001092180610921E0610921F065F98579AEE
:104D900061E084E00E946C0B61E084E00E943E0BC5
:104DA0006AE070E080E090E00E94DF0B5F9A579825
:104DB00065E070E080E090E00E94DF0B5F98579A1A
:104DC0008CB58C7F8CBD8DB581608DBD2A9A229863
:104DD0002898209A60E08DE00E943E0B60E08BE016
:104DE0000E943E0B61E08DE00E946C0B61E08BE065
:104DF0000E946C0B8CB580618CBD65E070E080E03A
:104E000090E00E94DF0B5F9A57986AE070E080E0C4
:104E100090E00E94DF0B6FE288EA0E94600E64E17E
:104E20008DE80E94600E0E942A0C81EA8EBD0E94CD
:104E30001F0C0E942A0C88EC8EBD0E941F0C6FE88C
:104E400081E80E94600E61EF89ED0E94600E60E4CF
:104E50008BED0E94600E0E942A0C8FEA8EBD0E948C
:104E60001F0C60E080E20E94600E0E942A0C81E22A
:104E70008EBD0E945C0E1EBC0E945C0E8FE78EBD34
:104E80000E941F0C0E942A0C82E28EBD0E945C0EC2
:104E90001EBC0E945C0E87E08EBD0E941F0C0E940B
:104EA0002A0C289A20981EBC0FEF13E00E945C0E7B
:104EB0001EBC01501109D1F70E941F0C62E080E274
:104EC0000E94600E0E9414160E946E0E60E081E146
:104ED0000E946C0B60E082E10E946C0B60E08FE04E
:104EE0000E946C0B62E08EE00E946C0B62E080E13D
:104EF0000E946C0B61E081E00E946C0B61E080E03D
:104F00000E946C0B61E086E00E946C0B1E861D8681
:104F1000188A1F861A8A198A60915A0670915B0650
:104F20006115710541F040915E0650915F06CE011A
:104F30000D960E947D1681E00E94AF08E988FA88EC
:104F4000E114F10489F00D851E8560E270E0C8016E
:104F50000E942434009741F09C01201B310B8901F1
:104F60000F3F100709F042C0809119068E9D9001F5
:104F70008F9D300D11248CE390E0821B930B8F3FAB
:104F8000EFEF9E0774F197FD0196959587958F3108
:104F9000910514F08EE190E080931E0680E18093ED
:104FA0001F0610E000E089899A890817190708F0A0
:104FB000D5C0ED85FE853097B1F410923C05ECE349
:104FC000F5E0608183E196E00E945A0E0E946E0E29
:104FD00062E370E080E090E00E94DF0B0F5F1F4F04
:104FE000E2CF80E0D9CFE00FF11FEBCF980150E086
:104FF00040E0BE01635F7F4FCE0107960E94CD1651
:1050000029893A89A8014F5F5F4FBE01635F7F4FD7
:10501000CE0101960E94CD168B859C85089708F4D9
:1050200041C080E00E94AF08409119068B859C85A5
:10503000489F9001499F300D11248CE390E0821B22
:10504000930B8F3FFFEF9F077CF197FD019695959E
:1050500087958F31910514F08EE190E080931E06C4
:105060008AE080931F0610E000E08B859C8508177E
:105070001907F8F4EF81F8853097C1F410923C05D8
:10508000ECE3F5E0608183E196E00E945A0E0E9415
:105090006E0E62E370E080E090E00E94DF0B0F5F35
:1050A0001F4FE3CF81E0BECF80E0D8CFE00FF11FEC
:1050B000E9CF8D819E81089708F441C080E00E946D
:1050C000AF08409119068D819E81489F9001499FAC
:1050D000300D11248CE390E0821B930B8F3F2FEF58
:1050E00092077CF197FD0196959587958F319105F3
:1050F00014F08EE190E080931E0688E180931F06F5
:1051000010E000E08D819E8108171907F8F4E9810D
:10511000FA813097C1F410923C05ECE3F5E0608130
:1051200083E196E00E945A0E0E946E0E62E370E0E8
:1051300080E090E00E94DF0B0F5F1F4FE3CF81E024
:10514000BECF80E0D8CFE00FF11FE9CFCE010196AE
:105150000E946F16CE0107960E946F1668E572E0F6
:1051600080E090E00E94DF0B80E00E94AF080E9488
:1051700014160E946E0ECE010D960E946F1690E0DE
:1051800080E00E94B32F893609F480C068EC70E09B
:1051900080E090E00E94DF0B81E090E00E94B32F5E
:1051A000893611F00E94BF220E94D50F049709F0A2
:1051B00051C000918D0110918E010E94D50F04976E
:1051C000E1F362E370E080E090E00E94DF0B109278
:1051D0001E0610921F066BE974E083E196E00E94C0
:1051E000611210921E068EE080931F0666EA74E03C
:1051F00083E196E00E94611210921E068CE180937A
:105200001F066FE874E083E196E00E9461120E943D
:105210006E0E0E94110C6B017C0120EDC20E27E086
:10522000D21EE11CF11C0E94110C6C157D058E052F
:105230009F0530F40E94D50F0497A9F70E94BF2262
:105240000E9414160E946E0E10938E0100938D0121
:105250000E94461B80E10E94150B892B09F0A7C014
:105260000E94D50F039709F0A2C080E10E94150BA0
:10527000892B09F03FC00E94D50F0397D9F562E34F
:1052800070E080E090E00E94DF0BEFCF85E8E82E31
:1052900081E0F82E08E010E0C8010E94B32FF7016A
:1052A00081937F010F5F1F4F06311105A9F78EE033
:1052B000E5E8F1E0A3E5B1E001900D928A95E1F710
:1052C00084E090E00E94B32F80936905F4E18F9F02
:1052D000C001112465E771E08A599F4F0E941F1693
:1052E00080E1E5E7F1E0A3E6B1E001900D928A9557
:1052F000E1F75ACF0E94D50F039709F058C00E94DA
:10530000D50F039739F462E370E080E090E00E94EB
:10531000DF0BF5CF0E94D50F892B39F462E370E0E3
:1053200080E090E00E94DF0BF5CF0E94D50F02973E
:10533000F1F510928E0110928D010E94461B0E9481
:1053400014168AE080931E0680E180931F0664EDA8
:1053500073E083E196E00E9461120E946E0E60E5A8
:1053600070E080E699E00E94AD0E6EE170E080E0B2
:1053700090E00E94DF0B60E570E080E699E00E941B
:10538000AD0E6EE170E080E090E00E94DF0B60E522
:1053900070E088EB9BE00E94AD0E64E670E080E078
:1053A00090E00E94DF0B0E9414160E946E0E81E1B5
:1053B00090E00E9439328C018AE593E0F8019183F4
:1053C000808388E382838EE083838AE690E09583FE
:1053D00084832EE730E0378326839187808783E0BC
:1053E0008287C8010E941E0D88E693E0F801918330
:1053F000808380859185908B878781E0868782E096
:10540000848784E18587C8010E94BC0CC8010E9482
:10541000300CC8010E94BA1210935F0500935E051C
:10542000C8010E94340DE5E4F5E080E090E0A0E4DE
:10543000B1E481939193A193B19325E0ED35F20707
:10544000C1F70E94110C609341057093420580934F
:1054500043059093440580E090E0A0E9B2E4809396
:105460003D0590933E05A0933F05B0934005809184
:105470008D0190918E01892B09F10E94581B80911A
:1054800083019091840190936105809360050BE105
:1054900013E020908D0130908E012114310409F425
:1054A00053C00E94581B80E090E0892B91F30E942A
:1054B000490A882371F30E940000EBCF88EE93E045
:1054C0000E94E3080E94DB1C6CE370E080ED97E033
:1054D0000E94AD0E6CE370E080E090E00E94DF0B74
:1054E0006CE370E080ED97E00E94AD0E6CE370E03D
:1054F00080E090E00E94DF0B6CE370E080ED97E0CD
:105500000E94AD0E80E10E94150B892B09F0B7CFE8
:1055100064EF71E080E090E00E94DF0B66E970E0EC
:1055200088EB9BE00E94AD0E66E970E080E090E0C1
:105530000E94DF0B66E970E088EB9BE00E94AD0EF5
:1055400081E080935D059BCF8091910190919201C4
:1055500020917501309176018217930724F490937E
:105560007601809375010E94F60F882309F484C3A5
:105570000E94110C613F7A408105910508F47CC3BB
:105580008091820181116EC062E370E088EB9BE044
:105590000E94AD0E64E670E080E090E00E94DF0BB8
:1055A00064E670E080ED97E00E94AD0E80E00E941E
:1055B00056100E94DB1CC0906A05D0906B05E090ED
:1055C0006C05F0906D05C114D104E104F10409F0FB
:1055D0007CC30E941A0F882309F484C3D090690504
:1055E00084E1D89E7001112494E6E90EF11CC701F4
:1055F0000E94B32F8F5F80936805893CC0F081E0E3
:105600008D0D893208F080C380936905E0906905AB
:10561000E4E1EE9E70011124F4E6EF0EF11C10920D
:10562000680569E675E084E090E00E94A72268E6DC
:1056300075E0C7010E94A7228091690524E1829F3D
:10564000C001112465E771E08A599F4F0E94A81C90
:1056500080E1E5E7F1E0A3E6B1E001900D928A95E3
:10566000E1F745C360917A0170917B01072E000C30
:10567000880B990B0E94962E6B017C01809175011D
:10568000909176019C8B8B8BBC01990F880B990BA9
:105690000E94962E2B013C0160917C0170917D014E
:1056A000072E000C880B990B0E94962EA7019601DD
:1056B0000E945030A30192010E94F52E20E030E0BC
:1056C00048EC52E40E94C230A70196010E9451307A
:1056D0004B015C01E0906101F090620195E0E916F8
:1056E000F9060CF042C0C501B4010E9434311B011F
:1056F0002BEC32E0AB89BC890E94323224E630E0E8
:1057000040E050E00E94C92FDA01C9018B5F9A4F37
:10571000AF4FBF4F90936201809361010E94E308F5
:1057200080917901833008F070C08F5F8F8381E0B2
:1057300089830E94110C4B015C016101330CEE085E
:10574000FF080E94110C681979098A099B096C15D8
:105750007D058E059F0508F05AC0BE01695F7F4F29
:10576000CE0101960E940B10ECCFEB89FC89EF2B48
:1057700009F448C020E030EC42E354E4C301B20134
:105780000E94F52E20E030E048EC52E40E94C23046
:1057900020E030EA40EA54E40E9451302B013C0101
:1057A000B701FF0C880B990B0E94962E9B01AC0150
:1057B000C301B2010E9450306B017C0120E030EA4D
:1057C00040EA54E4C301B2010E9450309B01AC0195
:1057D000C701B6010E94C230A50194010E94F52EB6
:1057E00020E030E048E452E40E9450306B017C013C
:1057F00020E030E0A9010E948F2E87FD79CFC701FC
:10580000B60173CF312C212C73CF84E68FCF0E9449
:10581000F60F81119CC180918201813009F097C1FE
:105820000E94DF100E94110CAB01BC01209180018D
:1058300030918101E8EEF3E02E9FC0012F9F900D83
:105840003E9F900D1124092E000CAA0BBB0B840F58
:10585000951FA61FB71F80936E0590936F05A093A9
:105860007005B093710525E035E030937401209305
:1058700073019CCE80918201813021F033E63F1587
:1058800008F473C160E081E00E943E0B0E94110C9D
:105890006B017C01C8010197F1F761E080E00E9493
:1058A0003E0B0E94C20F0297A9F00E94110CAB019F
:1058B000BC014C195D096E097F0980918B019091A3
:1058C0008C01092E000CAA0BBB0B481759076A075D
:1058D0007B0738F360E080E00E943E0BC80101972F
:1058E000F1F70E94110C6B017C010E94C20F02971C
:1058F00009F473C10E94110C6C197D098E099F096E
:10590000603571058105910580F361E081E00E94B9
:105910003E0B68E070E080E090E00E94DF0B60E00A
:1059200081E00E943E0B0E94110C6B017C010E94E1
:10593000C20F0297D1F20E94110C6C197D098E09D9
:105940009F09683C71058105910588F360E570E069
:1059500088EB9BE00E94AD0E60E570E080E090E097
:105960000E94DF0B60E570E088EB9BE00E94AD0ECB
:105970000E94DF101BCE80918201813029F40E94A9
:10598000F60F8111F2C07ECF8250823008F07ACFBC
:10599000ECC00E94110C4B015C010E94110C609341
:1059A0006405709365058093660590936705109272
:1059B0006305109262050E94110CC0906405D0909E
:1059C0006505E0906605F09067056C197D098E0904
:1059D0009F096230710581059105C8F0E09062056C
:1059E000F09063050E94C20F019789F40E94110C88
:1059F00060936405709365058093660590936705D1
:105A00008FEFE81AF80AF0926305E0926205809140
:105A10006205909163050497CCF010926305109293
:105A200062058F81823040F58F8181508F83809114
:105A3000600590916105181619062CF40197909352
:105A40006105809360050E94D2131CCF0E94110C47
:105A5000681979098A099B09683C710581059105D6
:105A600040F4BE01695F7F4FCE0101960E940B108A
:105A7000A2CF0E94DF1094CD0E94FF0F882309F46B
:105A8000A2C00E94F60F882379F20E94110C6B01CC
:105A90007C010E94110C6C197D098E099F096530EB
:105AA000710581059105A8F3209177013091780166
:105AB000ACE9BFEF0E942A3224E630E040E050E03B
:105AC0000E94C92F69017A0194E6C90ED11CE11C1C
:105AD000F11CE6E0CE16D1042CF160E081E00E94DA
